:030000000201B446
:0C01B400787FE4F6D8FD75810C0201A4F0
:1001A400C285C293E4FF1200037FFF12010580FEA3
:10008200E4F50AD2927FF81201052092451201C0CE
:100092002092377F78120105209203750A017FB8FA
:1000A200120105209203750A027FD81201052092DF
:1000B20003750A037FE8120105209203750A047F83
:1000C200F8120105209203750A052092051201C05B
:0900D20080F87F0112014DAF0A14
:0100DB002202
:100193003F065B4F666D7D077F6F777C395E7971B4
:0101A30080DB
:10000300C285EFB40B005076900012F828287302D3
:10001300003302003702003B0200410200470200A6
:100023004D02005302005C02006502006E0200777D
:10003300C2838030C2838035C283C2828016C2836A
:10004300C2828019C283D282801CC283D282801F63
:10005300C283D282D281C28022C283D282D281D28F
:100063008022D283C282C281C28022D283C282C250
:0F00730081D28022D283D282D281D280D28522C2
:1000DC00E4F50BE4FF120105AF0B120003E50B90E6
:1000EC00019393FF120105E50BB40A03E4F50B052C
:0800FC000BE50BC3940B40DB84
:0101040022D8
:0401CC00000000220D
:0B01C0000000007F0B7EBEDEFEDFFCB7
:0101CB002211
:10017F00D3EF9400EE9400400A1201CCEF1F70F001
:04018F001E80ED22BF
:10016700AD07AC06D3ED9400EC9400400A1201C031
:08017700ED1D70F01C80ED226B
:10012A008F0CD293E50CB401057F80120105E50C12
:10013A00B402057F40120105E50CB402057F2012C6
:03014A000105228A
:10010500C2A1C2847E08EF3392A3EF25E0FFC2A10E
:100115000000D2A10000C2A1DEECC2840000D2849E
:040125000000C28490
:0101290022B3
:02014D008F0819
:10014F00E4F509B286AF087E001201670509E509DB
:07015F00C3946440EEC28668
:010166002276
:00000001FF
