:03000000020F2DBF
:0C0F2D00787FE4F6D8FD758120020F7477
:0519E900900057EFF033
:1019EE00E4A3F0B286900057E0FF7E00121A5890E2
:0D19FE000058E004F0E0C3946440E8C286A5
:011A0B0022B8
:10199C0042001C000042004B000042001F000042AD
:1019AC000049000047004D55AA020000000041000C
:0719BC0000004200010000E1
:0E18BC00900056E0FFC374079FFFE49400FE07
:0818CA00900057EEF0A3EFF0CF
:1018D200A3E4F0A304F0E4FBFAD3900058E09BEAFF
:1018E2006480F8900057E0648098401E900059E0B0
:1018F200FEA3E0FF7C007D0A1203F0900059EEF097
:10190200A3EFF00BBB00010A80CF900059E0FEA3C9
:02191200E0FFF4
:0119140022B0
:100800009000567402F01215F67FC87E00121A5836
:10081000900014E0B465057F011219E975C1351225
:100820001327900014E0601D249BB4060050ED9047
:10083000083925E050020583730192212D21E761DB
:100840000461F081DF900003E0D394094010900030
:10085000147465F0E4900003F07F011219E9D3905D
:100860000020E0941490001FE09400400AE4F0A3FC
:10087000F0900003E004F0900003E0FF7B017A00B9
:10088000792190001EE090005CF0E4A3F0121000CB
:10089000808A1205E8900054EFF0700221BBE0243A
:1008A000FD602814604814607124F960130460022C
:1008B00021BB9000567402F09000147467F021BBC5
:1008C000E4900014F0900003F021BB7F011219E9BD
:1008D00090001EE0B402087403F012180021BB90CF
:1008E000001EE0B403087402F012185E21BBE4900D
:1008F0000055F0900055E0FFC3940A502EEF25E01C
:1009000025E02421F582E43400F5831204B50000CB
:100910000000900055E004F080D9900003E0B40995
:1009200004E4F021BB900003E004F021BB1205E8D1
:10093000900054EFF0700221BBE024FD60221460AF
:100940003D14606624F960110470709000567402C2
:10095000F09000147467F08062E4900014F0805B03
:100960007F011219E990001EE0FFB402057403F044
:100970008049EFB4030890001E7402F0803DE490BB
:100980000055F0900055E0FFC3940A502EEF25E08B
:1009900025E02421F582E43400F5831204B500003B
:1009A0000000900055E004F080D9900003E0B40905
:1009B00004E4F08006900003E004F0900003E0FF00
:1009C0007B017A00792190001EE090005CF0E4A3A6
:1009D000F0121000900010E0FCA3E0FDA3E0FEA3E5
:1009E000E0FF12121C011C1205E8900054EFF07099
:1009F0000241E2E024FE60171460282402600241F4
:100A0000E29000567402F09000147468F041E29095
:100A10000056E0B407057402F041E2900056E0048D
:100A2000F041E2900056E0900003B40227E025E098
:100A300025E02421F582E43400F583C083C082E000
:100A4000FCA3E0FDA3E0FEA3E0FF7B007A40791C5D
:100A500078468043E025E025E02421F582E4340057
:100A6000F583C083C082E0F8A3E0F9A3E0FAA3E035
:100A7000FBC000C001C002C0031218BCAC06AD0729
:100A8000EC1203367BCD7ACC79CC783D12011ED0A6
:100A900003D002D001D00012002DD082D0831204E6
:100AA000A9900003E025E025E02421F582E434004C
:100AB000F583E0FCA3E0FDA3E0FEA3E0FF7B807AEA
:100AC0004F79C378471202C45018900003E025E024
:100AD00025E02421F582E43400F5831204B50000FA
:100AE0000000900003E0FF7B017A00792190001E56
:100AF000E090005CF0900056E090005DF012100075
:100B00007F0181DA1205E8900054EFF0700261C0B5
:100B1000E024FE60171460282402600261C0900087
:100B2000567402F09000147469F061C0900056E0B1
:100B3000B407057402F061C0900056E004F061C093
:100B4000900056E090000CB40215E0FCA3E0FDA379
:100B5000E0FEA3E0FF7B007A40791C78468031E01C
:100B6000F8A3E0F9A3E0FAA3E0FBC000C001C002D3
:100B7000C0031218BCAC06AD07EC1203367BCD7A6D
:100B8000CC79CC783D12011ED003D002D001D00028
:100B900012002D90000C1204A97F807E4F7DC37C33
:100BA0004790000CE0F8A3E0F9A3E0FAA3E0FB1201
:100BB00002C4600C400A90000C1204B50000000052
:100BC00090000CE0FCA3E0FDA3E0FEA3E0FF90009A
:100BD000591204A990001EE090005DF0900056E0CC
:100BE00090005EF0900003E0FF120D107F0281DAAA
:100BF0001205E8900054EFF0700281ACE024FE6032
:100C0000171460282402600281AC9000567402F030
:100C1000900014746AF081AC900056E0B40705743B
:100C200002F081AC900056E004F081AC900056E0F8
:100C3000900004B40215E0FCA3E0FDA3E0FEA3E0F5
:100C4000FF7B007A40791C78468031E0F8A3E0F918
:100C5000A3E0FAA3E0FBC000C001C002C003121869
:100C6000BCAC06AD07EC1203367BCD7ACC79CC78E0
:100C70003D12011ED003D002D001D00012002D90F1
:100C800000041204A97F807E4F7DC37C4790000C36
:100C9000E0F8A3E0F9A3E0FAA3E0FB1202C4600CC1
:100CA000400A9000041204B500000000900004E027
:100CB000FCA3E0FDA3E0FEA3E0FF9000591204A90D
:100CC00090001EE090005DF0900056E090005EF015
:100CD000900003E0FF120D107F03121915011C1282
:100CE00005E8900054EFF06019E024FD6012240242
:100CF00070109000567402F09000147465F0800239
:100D0000B200A20092011217567F04121915011C9D
:1015F600758E00758911D2AFD2A9D2ABD28C121AD0
:10160600269000147465F0E4FF1216E590001E742F
:1016160002F0E4900057F0900057E0FFC3940A50A0
:101626003CEF75F008A42400FFE5F03420FE121A02
:101636003FAC07E412033BE4FBFA7920784112023F
:1016460027900057E025E025E02421F582E43400C8
:10165600F5831204A9900057E004F080BA7F007E5B
:1016660022121A3F900003EFF07F167E22121A3FD5
:10167600AC07E412033BE4FBFA7920784112022717
:101686009000101204A97F327E22121A3FAC07E4A2
:1016960012033BE4FBFA7920784112022790000CF2
:1016A6001204A97F487E22121A3FAC07E412033BBC
:1016B600E4FBFA792078411202279000041204A96B
:1016C6007F647E22121A3FAC07E412033BEC4D4EB8
:0516D6004F24FF92000B
:0116DB0022EC
:101A2600759850438E40538EFE53890F758B707593
:091A36008DFFC2ABD2ACD28E22AE
:03000B0002073DAC
:10073D00C0E0C0F0C083C082C0D075D000C000C082
:10074D0001C002C003C004C005C006C007758A0001
:10075D00758C4CC28DD28C90001DE004F07006900B
:10076D00001CE004F090004CE004F0700690004B8B
:10077D00E004F0900020E004F0700690001FE0040B
:10078D00F090004AE004F07006900049E004F0207B
:10079D009138900003E025E025E02421F582E43432
:1007AD0000F583C083C082E0FCA3E0FDA3E0FEA3BF
:1007BD00E0FF90000CE0F8A3E0F9A3E0FAA3E0FB62
:1007CD0012002DD082D0831204A9D007D006D005F7
:1007DD00D004D003D002D001D000D0D0D082D083AD
:0507ED00D0F0D0E03265
:1017C300E4FFFE74152FF58274003EF583E0FD748B
:1017D3004D2FF58274003EF583E06D6004E4FEFF57
:1017E300220FBF00010EEF64054E70D77E007F010C
:0117F30022D3
:0300230002150FB4
:10150F00C0E0C0F0C083C082C0D075D000C000C0A2
:0D151F0001C002C003C004C005C006C00723
:10152C00C298AF99EFB40131900003E025E025E0BB
:10153C002421F582E43400F583C083C082E0FCA34F
:10154C00E0FDA3E0FEA3E0FFE4FBFA7980783F1214
:10155C00002DD082D0831204A9C390004AE09414C9
:10156C00900049E094004067900001E0FCA3E0FD8E
:10157C00EC120336A804A905AA06AB07900003E0F9
:10158C0025E025E02421F582E43400F583E0FCA37A
:10159C00E0FDA3E0FEA3E0FF12002990001012046E
:1015AC00A9900003E025E025E02421F582E4340035
:1015BC00F583E0FCA3E0FDA3E0FEA3E0FF12036FC4
:0F15CC00900001EEF0A3EFF0900049E4F0A3F0DF
:1015DB00D007D006D005D004D003D002D001D00064
:0B15EB00D0D0D082D083D0F0D0E0320E
:10132700E4900057F0A3F0900057E0FCA3E0FDAE77
:10133700047803C333CE33CED8F92400FFEE34202C
:10134700FEC006C007EDAE047802C333CE33CED855
:10135700F92421F58274003EF583E0FCA3E0FDA3A8
:10136700E0FEA3E0FFE4FBFA7920784112011E12A8
:10137700036FAD07D007D006121A0C900058E0048F
:10138700F07006900057E004F0C3900058E0940A0C
:10139700900057E064809480408D900003E0FD7FCB
:1013A700007E22121A0CE4FFFE7D207C4190001083
:1013B700E0F8A3E0F9A3E0FAA3E0FB12011E120391
:1013C7006FAD077F167E22121A0CE4FFFE7D207C8C
:1013D7004190000CE0F8A3E0F9A3E0FAA3E0FB12C8
:1013E700011E12036FAD077F327E22121A0CE4FF33
:1013F700FE7D207C41900004E0F8A3E0F9A3E0FA29
:10140700A3E0FB12011E12036FAD077F487E221275
:0E1417001A0CA200E433FD7F647E22021A0C40
:0400030000000022D7
:0B17F4000000007F0B7EBEDEFEDFFC6D
:0117FF0022C7
:10000E00D3EF9400EE9400400A120003EF1F70F03D
:04001E001E80ED2231
:101A5800AD07AC06D3ED9400EC9400400A1217F4DD
:081A6800ED1D70F01C80ED2261
:10180000E4900057F0A3F0900057E0FEA3E0FFC380
:10181000940AEE648094805044EF7802C333CE3350
:10182000CED8F92421F58274003EF583C083C082AE
:10183000E0FCA3E0FDA3E0FEA3E0FF7B1F7A857937
:101840008B783F12011ED082D0831204A9900058D9
:0D185000E004F070B2900057E004F080AAB0
:01185D002268
:10185E00E4900057F0A3F0900057E0FEA3E0FFC322
:10186E00940AEE648094805044EF7802C333CE33F2
:10187E00CED8F92421F58274003EF583C083C08250
:10188E00E0FCA3E0FDA3E0FEA3E0FF7B1F7A8579D9
:10189E008B783F120227D082D0831204A990005871
:0D18AE00E004F070B2900057E004F080AA52
:0118BB00220A
:0C1A9D00C2AF53C71843C70143C78022E3
:091AB40053C77FE4F5C6D2AF224E
:0B1AA900121A9D75C64675C6B90022D2
:101A3F00AD07AC06ECF5C3EDF5C453C5F843C501CE
:091A4F00121AA9121AB4AFC22246
:101A0C00AB07AA06EAF5C3EBF5C453C5F843C50208
:0A1A1C00AF058FC2121AA9021AB416
:101A7000EE54FEFE7F00F5C3E4F5C453C5F843C53C
:071A800003121AA9021AB4B7
:1005E800E4900057F0FF1216E5309202E1377F05DC
:1005F8007E00121A58309202E137E490001CF0A3F2
:10060800F07F1E1219C42092069000577401F07FE3
:100618001D1219C42092069000577405F07F1B1212
:1006280019C42092069000577404F07F171219C459
:100638002092069000577403F07F0F1219C420927D
:10064800069000577402F0E4FF1219C4309202E1D8
:100658000D900014E02499603614605014607824DA
:100668000470E9900003E0FF7B017A007921900093
:100678001EE090005CF0E4A3F0121000900010E07F
:10068800FCA3E0FDA3E0FEA3E0FF12121C80BD90D6
:100698000003E0FF7B017A00792190001EE09000C2
:1006A8005CF0E4A3F01210007F01805490000CE08D
:1006B800FCA3E0FDA3E0FEA3E0FF9000591204A90B
:1006C80090001EE090005DF0E4A3F0900003E0FFCE
:1006D800120D107F028029900004E0FCA3E0FDA326
:1006E800E0FEA3E0FF9000591204A990001EE090DC
:1006F800005DF0E4A3F0900003E0FF120D107F030B
:10070800121915C154D390001DE0942890001CE0E4
:1007180094004014900057E0B40103740BF090006B
:1007280057E0B40203740CF0E490001CF0A3F090BE
:040738000057E0FF87
:01073C00229A
:0D07F2003F065B4F666D7D077F6F6D7931AF
:0916DC00AF03EAF0A3EFF0E4FF14
:1016E500C285EFB40C0050689016F325E073E10B4A
:1016F500E10FE113E119E122E128E12CE132E135C5
:10170500E13EE144E14DD283801FC2838011C28353
:10171500C2828004C283D282D281C28022D283C295
:10172500828020D2838023C283D2828007D2852201
:10173500C283C282D281D28022C283D282800DC26C
:1017450083D282C281D28022C283C282C281C280F8
:011755002271
:050D1000900058EFF017
:100D1500C201D390004CE0941290004BE094004047
:100D250006E4F0A3F0B201E4FFFE7D207C419000D3
:100D350059E0F8A3E0F9A3E0FAA3E0FB12011E12C3
:100D4500036F9000601204A97BA07A867901780070
:100D5500900060E0FCA3E0FDA3E0FEA3E0FF120F1E
:100D6500B9900064EEF0A3EFF0E47B107A27F9F870
:100D7500900060E0FCA3E0FDA3E0FEA3E0FF120FFE
:100D8500B9E47B0AFAF9F8120FB9AF03900066EAE5
:100D9500F0A3EFF0E47BE87A03F9F8900060E0FC5B
:100DA500A3E0FDA3E0FEA3E0FF120FB9E47B0AFA7E
:100DB500F9F8120FB9AF03900068EAF0A3EFF0E479
:100DC5007B64FAF9F8900060E0FCA3E0FDA3E0FE87
:100DD500A3E0FF120FB9E47B0AFAF9F8120FB9AFD5
:100DE5000390006AEAF0A3EFF0E47B0AFAF9F890C1
:100DF5000060E0FCA3E0FDA3E0FEA3E0FF120FB955
:100E0500E47B0AFAF9F8120FB9AF0390006CEAF027
:100E1500A3EFF0E47B0AFAF9F8900060E0FCA3E0A8
:100E2500FDA3E0FEA3E0FF120FB990006E1216DCE1
:100E350090005DE0FF12196B90005F7401F0900067
:100E45005FE0FFD394074002E12C90005EE0FEEFE7
:100E55006E7030A3E06406602A1216E53001229018
:100E6500005FE025E02460F582E43400F583E0FED0
:100E7500A3E024F2F58274073EF583E493FF12198B
:100E8500C4E11890005FE0640170137F011216E55C
:100E9500900058E09007F293FF1219C48038900033
:100EA5005FE0FF640670421216E590005EE064069E
:100EB500602490005FE025E02460F582E43400F5CD
:100EC50083E0FEA3E024F2F58274073EF583E49304
:100ED5004480FF1219C47F017E00121A58E4FF12E4
:100EE50019C4E4FF1216E5803690005FE0FF121684
:100EF500E590005FE025E02460F582E43400F583A9
:100F0500E0FEA3E024F2F58274073EF583E493FF47
:100F15001219C47F017E00121A58E4FF1219C490F9
:070F2500005FE004F0C1438E
:010F2C0022A2
:05100000900058EFF024
:10100500C201E075F004A4F58285F083120479E449
:10101500FBFA7920784112011E12036F90005F12CE
:1010250004A9D390004CE0941290004BE09400404A
:1010350006E4F0A3F0B2017BA07A867901780090EE
:10104500005FE0FCA3E0FDA3E0FEA3E0FF120FB903
:10105500900063EEF0A3EFF0E47B107A27F9F890A7
:10106500005FE0FCA3E0FDA3E0FEA3E0FF120FB9E3
:10107500E47B0AFAF9F8120FB9AF03900065EAF0BC
:10108500A3EFF0E47BE87A03F9F890005FE0FCA3B6
:10109500E0FDA3E0FEA3E0FF120FB9E47B0AFAF935
:1010A500F8120FB9AF03900067EAF0A3EFF0E47B05
:1010B50064FAF9F890005FE0FCA3E0FDA3E0FEA36D
:1010C500E0FF120FB9E47B0AFAF9F8120FB9AF0382
:1010D500900069EAF0A3EFF0E47B0AFAF9F89000D2
:1010E5005FE0FCA3E0FDA3E0FEA3E0FF120FB9E47F
:1010F5007B0AFAF9F8120FB9AF0390006BEAF0A377
:10110500EFF0E47B0AFAF9F890005FE0FCA3E0FD5C
:10111500A3E0FEA3E0FF120FB990006D1216DC905C
:10112500005CE0FF12196B90005E7401F090005EA8
:10113500E0FFD394074002411B90005DE0FEEF6E97
:101145007030A3E06406602A1216E5300122900093
:101155005EE025E0245FF582E43400F583E0FEA33C
:10116500E024F2F58274073EF583E493FF1219C477
:10117500410790005EE0640170137F011216E5904F
:101185000058E09007F293FF1219C4803890005E72
:10119500E0FF640670421216E590005DE0640660AB
:1011A5002490005EE025E0245FF582E43400F583B9
:1011B500E0FEA3E024F2F58274073EF583E4934450
:1011C50080FF1219C47F017E00121A58E4FF12191C
:1011D500C4E4FF1216E5803690005EE0FF1216E5C6
:1011E50090005EE025E0245FF582E43400F583E0BD
:1011F500FEA3E024F2F58274073EF583E493FF1223
:1012050019C47F017E00121A58E4FF1219C4900018
:061215005EE004F021324E
:01121B0022B0
:101756002001397F051216E59007F2E493FF12196E
:10176600C47F017E00121A58E4FF1219C47F0612C4
:1017760016E57F711219C47F017E00121A58E4FF24
:101786001219C47F071216E57F7180217F06121693
:10179600E59007F2E493FF1219C47F017E00121A46
:1017A60058E4FF1219C47F071216E57F371219C4D1
:0D17B6007F017E00121A58E4FF1219C422B0
:06121C009000581204A925
:10122200E4FFFE7D207C41900058E0F8A3E0F9A3A2
:10123200E0FAA3E0FB12011E12036FAB07AA067CC1
:10124200037DE812040290005EEEF0A3EFF07C0052
:101252007D64AF03AE021204027C007D0A12040216
:10126200A3ECF0A3EDF07C007D0AAF03AE02120402
:10127200027C007D0A120402A3ECF0A3EDF0AE02A0
:10128200AF037C007D0A120402A3ECF0A3EDF09000
:10129200005CE4F0A37408F090005CE0FEA3E0FFC1
:1012A200D3940BEE64809480507A1216E590005C21
:1012B200E0FEA3E0FF640A4E7024EF25E0FFEE3368
:1012C200FE744E2FF58274003EF583E0FEA3E02407
:1012D200F2F58274073EF583E49344808026900001
:1012E2005DE025E0FF90005CE033FE744E2FF58256
:1012F20074003EF583E0FEA3E024F2F58274073E1B
:10130200F583E493FF1219C47F017E00121A58E498
:10131200FF1219C490005DE004F0700690005CE0DA
:0413220004F0419AF8
:0113260022A4
:05191500900058EFF006
:10191A00A37408F0900059E0FFC3940B50231216E9
:10192A00E5900059E09007F493FF1219C47F017EF5
:10193A0000121A58E4FF1219C4900059E004F0800A
:10194A00D3900059E0FF1216E5900058E09007F294
:10195A0093FF1219C47F017E00121A58E4FF02197C
:01196A00C4B8
:10196B00900070EFF0D293BF01057F201219C49045
:10197B000070E0B402057F401219C4900070E0B40F
:10198B0003057F801219C47F017E00121A58C2937F
:01199B002229
:1019C400C2A1C2847E08EF3392A3EF25E0FFC2A137
:1019D4000000D2A10000C2A1DEECC2840000D284C7
:0419E4000000C284B9
:0119E80022DC
:05142500900075EFF0DE
:10142A007F55121A957FAA121A957F20121A957F54
:10143A000C121A9590001EE070047F018002E4FFEE
:10144A00121A95900075E025E025E02421F582E442
:10145A003400F583E0FCA3E0FDA3E0FEA3E0FFE493
:10146A00FBFA7920784112011E12036F78101204D8
:10147A0065121A95900075E025E025E02421F58291
:10148A00E43400F583E0FCA3E0FDA3E0FEA3E0FF63
:10149A00E4FBFA7920784112011E12036F780812D0
:1014AA000465121A8A900075E025E025E02421F5EA
:1014BA0082E43400F583E0FCA3E0FDA3E0FEA3E0B0
:1014CA00FFE4FBFA7920784112011E121A87900074
:1014DA0010E0FCA3E0FDA3E0FEA3E0FF12036F7897
:1014EA0008120465121A95900010E0FCA3E0FDA30F
:1014FA00E0FEA3E0FF121A87900075E0FF121A952A
:05150A00E4FF021A9548
:0E1A870012036FE4FB7A01F9F8120FB9AF03F6
:081A95008F993099FDC29922DE
:100026000203DBE86480F8E933E83360110460F02A
:10003600ED33EC337009E8FCE9FDEAFEEBFF220440
:1000460060DED3EB9FEA9EE99DE8C2E78CF0C2F73B
:1000560095F0400CE8CCF8E9CDF9EACEFAEBCFFB07
:100066001203A685D0F05804700320D5B3E80470B7
:10007600075002B2D50203E592D5EC0460F7E4CC52
:10008600C0E0C398F8603B94186008400DD0E0FBD0
:100096000203BDE4FBFAC9FC8028E830E406E4C9A3
:1000A600FBE4CAFCE830E305E4C9CACBFCE8540724
:1000B6006010F8C3E913F9EA13FAEB13FBEC13FC2F
:1000C600D8F130F52FC3E49CFCEF9BFFEE9AFEEDD2
:1000D60099FDD0E0FBEF4E4D4C701222DB0302037C
:1000E600E2EC2CFCEF33FFEE33FEED33FDED30E7B3
:1000F600EB0203BDEF2BFFEE3AFEED39FDD0E0FB40
:1001060050130BBB00030203E5ED13FDEE13FEEFE8
:0801160013FFEC13FC0203BD12
:10011E00EC4D6011E8497017ED33EC3304600DE4DB
:10012E00FCFFFEFD22E933E8330470F80203DB1214
:10013E0003A658046009E4CC248150062850090215
:10014E0003E52840030203E2C0E0EB4A7044B980A5
:10015E0006D0E0FB0203D1EF4E701CBD8008EBFF12
:10016E00EAFEE9FD80EBE98DF0A4FEE5F002020760
:10017E00E9CDF9EAFEEBFFEF89F0A4FCE5F0CE89BC
:10018E00F0A42EFFE435F0CD89F0A42DFEE435F079
:10019E008067EF4E7005BD80D780C3EF8BF0A4ACA7
:1001AE00F0EE8BF0A42CFCE435F0F8EF8AF0A42CE2
:1001BE00E5F038FCE433CB8DF0A42CFCE5F03BF8F5
:1001CE00EE8AF0A42CFCE5F038F8E433CF89F0A4E5
:1001DE002CFCE5F038CF3400CE89F0A42FFFE5F0EB
:1001EE003EFEE433C98DF0A42EFEE5F039CD8AF043
:1001FE00A42FFFE5F03EFEE43DFD33D0E0FB5007BB
:10020E000BBB000F0203E5EC2CFCEF33FFEE33FECD
:06021E00ED33FD0203BDFB
:100224000203E5EC5D046005E8590470030203DB96
:100234001203A6580460F6EC4860F2EC7004FDFE6C
:10024400FF22C860DB2481C85009C39860025006AD
:100254000203E29850CAF582E9294B4A7005AB8241
:100264000203D175F0007C1A7880C3EF9BEE9AEDFF
:1002740099400DC3EF9BFFEE9AFEED99FDE842F025
:10028400DC23ACF0D0E0FFD0E0FED0E0FDAB822078
:10029400E7101BEB60BAEC2CFCEF33FFEE33FEED02
:1002A40033FD0203BDE803F830E705C0F075F00044
:1002B400EF2FFFEE33FEED33FD40B830E7C280AAE6
:1002C40074F8CC6480CCC86480C8F582046043C3ED
:1002D400EB9FF5F0EA9E42F0E99D42F0E89C45F080
:1002E40060305018E5825FFFE582F42B5582FB50A5
:1002F400210ABA001D09B90019088016E5825BFBC2
:10030400E582F42F5582FF50090EBE00050DBD0095
:10031400010CC3EB9FF5F0EA9E42F0E99D42F0E840
:0D0324009C45F06007CC4820E701B3EC22B7
:1003310075F020800E75F010800575F0087D007E47
:10034100007F003392D530D503120457EC334010AF
:10035100EF33FFEE33FEED33FDEC33FCD5F0ED2250
:0E036100E5F0247EA2D513CC92E7CDCEFF228C
:10036F00EDD2E7CD33EC3392D524814006E4FFFE86
:10037F00FDFC22FCE4CFCECDCC24E0501174FF80E5
:10038F00EDC3CC13CCCD13CDCE13CECF13CF047082
:07039F00F030D5DE02045727
:1003A600E9D2E7C933E833F892D5EDD2E7CD33EC9D
:0703B60033FC5002B2D52216
:1003BD00EC30E7100FBF000C0EBE00080DBD0004A1
:1003CD000BEB6014A2D5EB13FCED92E7FD2274FF4D
:1003DD00FCFDFEFF22E480F8A2D574FF13FC7D80A6
:0303ED00E480EFBA
:100F3900020800E493A3F8E493A34003F68001F2C6
:100F490008DFF48029E493A3F85407240CC8C333B9
:100F5900C4540F4420C8834004F456800146F6DF88
:100F6900E4800B010204081020408090199CE47E63
:100F7900019360BCA3FF543F30E509541FFEE4937D
:100F8900A360010ECF54C025E060A840B8E493A344
:100F9900FAE493A3F8E493A3C8C582C8CAC583CA6F
:100FA900F0A3C8C582C8CAC583CADFE9DEE780BE27
:0119C3000023
:1003F000EF8DF0A4A8F0CF8CF0A428CE8DF0A42E21
:02040000FE22DA
:10040200BC000BBE0029EF8DF084FFADF022E4CCDE
:10041200F875F008EF2FFFEE33FEEC33FCEE9DECA7
:10042200984005FCEE9DFE0FD5F0E9E4CEFD22EDED
:10043200F8F5F0EE8420D21CFEADF075F008EF2F37
:10044200FFED33FD4007985006D5F0F222C398FD28
:050452000FD5F0EA22C5
:100FB900C2D5E830E70FB2D5E4C39BFBE49AFAE463
:100FC90099F9E498F8EC30E717B2D5120FEF12054A
:100FD90022E4C39BFBE49AFAE499F9E498F88003C4
:100FE90012052230D50DE4C39FFFE49EFEE49DFD6A
:040FF900E49CFC2256
:0E045700C3E49FFFE49EFEE49DFDE49CFC22B6
:10046500E86010ECA2E713FCED13FDEE13FEEF13AD
:04047500FFD8F0229A
:10047900BB010DE58229F582E5833AF5830205C0C2
:100489005007E92582F80205B4BBFE07E92582F881
:100499000205CCE58229F582E5833AF5830205D880
:0C04A900ECF0A3EDF0A3EEF0A3EFF022C6
:1004B500A8828583F0D083D0821204CC1204CC129A
:1004C50004CC1204CCE473E493A3C583C5F0C583BF
:1004D500C8C582C8F0A3C583C5F0C583C8C582C891
:0104E50022F4
:1004E60075F008758200EF2FFFEE33FECD33CDCCCD
:1004F60033CCC58233C5829BED9AEC99E582984050
:100506000CF582EE9BFEED9AFDEC99FC0FD5F0D62C
:10051600E4CEFBE4CDFAE4CCF9A88222B800C1B956
:100526000059BA002DEC8BF084CFCECDFCE5F0CB94
:10053600F97818EF2FFFEE33FEED33FDEC33FCEBCD
:1005460033FB10D703994004EB99FB0FD8E5E4F988
:10055600FA227818EF2FFFEE33FEED33FDEC33FC75
:10056600C933C910D7059BE99A4007EC9BFCE99A69
:10057600F90FD8E0E4C9FAE4CCFB2275F010EF2FAE
:10058600FFEE33FEED33FDCC33CCC833C810D707AE
:100596009BEC9AE899400AED9BFDEC9AFCE899F8E9
:0E05A6000FD5F0DAE4CDFBE4CCFAE4C8F9227C
:0C05B400E6FC08E6FD08E6FE08E6FF2273
:0C05C000E0FCA3E0FDA3E0FEA3E0FF22AE
:0C05CC00E2FC08E2FD08E2FE08E2FF226B
:1005D800E493FC740193FD740293FE740393FF2269
:00000001FF
